:020000040000FA
:04000000D5EF25F023
:104B02001200F250040B1200080ED56ED58E120060
:104B1200F2A48EEF25F090EF25F089EF25F0120038
:104B2200670EAF6EAC9CAC8AAC98AC84AB8EAB9C7F
:104B3200AB881200016E01C0ADFFACA2A3EF25F05D
:104B4200A5EF25F09EEF25F012000E6E000E0B6E03
:104B5200000E0A6E0E50BAEC27F0000E026E020E24
:104B6200016E37EC26F012000E6E000E0B6E010E77
:104B72000A6E0E50BAEC27F0000E026E500E016E55
:104B820081EC25F01200D8900134036E0234046ED9
:104B9200031E041E320E035E000E045A0450D76E2A
:104BA20003C0D6FFF29412000001856B846B836B05
:104BB200826B816B806B7E6A7D6A7C6A7B6A7A6AB1
:104BC200796A000EF86E0001E1EF29F00C6E0CC05C
:104BD20007F0086AE9EC26F0000E026E1D0E016E67
:104BE2000AC003F00BC004F050EC2FF0A6EC26F044
:104BF20012002A502C02F3CF2EF0F4CF2FF02A50BD
:104C02002D02F3502F262B502C02F3502F262EC0AC
:104C12002AF02FC02BF01200000E026E080E016E59
:104C2200000E046E010E036E50EC2FF0000E026EA9
:104C3200080E016E000E046E000E036E50EC2FF093
:104C42001200000E026E1F0E016E000E046E010EA7
:104C5200036E50EC2FF0000E026E1F0E016E000E5E
:104C6200046E000E036E50EC2FF01200000E056E63
:104C7200000E046E3FEF26F0044A052A0150045C40
:104C82000550800A036E0250800A0358D8A04CEFE8
:104C920026F04EEF26F03DEF26F0120068EC26F0EB
:104CA200000E026E0A0E016E000E046E010E036EFD
:104CB20029EC2EF0000E026E090E016E000E046E3B
:104CC200010E036E29EC2EF00C0EC16E1200000EC6
:104CD200026E1F0E016E000E046E000E036E29ECB2
:104CE2002EF0000E026E080E016E000E046E000E13
:104CF200036E29EC2EF0000E026E1E0E016E000EE7
:104D0200046E000E036E29EC2EF01200000E026EED
:104D1200180E016E000E046E000E036E29EC2EF0CA
:104D2200000E026E190E016E000E046E000E036E6E
:104D320029EC2EF0000E026E1A0E016E000E046EA9
:104D4200000E036E29EC2EF01200000E026E1C0EF5
:104D5200016E000E046E010E036E50EC2FF0000E79
:104D6200026E050E016E81EC25F0000E026E1C0E25
:104D7200016E000E046E000E036E50EC2FF0000E5A
:104D8200026E050E016E81EC25F01200010EA6ECFA
:104D920025F0800EA6EC25F0C40E0F6E7F0E106E6D
:104DA20038EC27F0C00EA6EC25F07A0E0F6E7F0EBF
:104DB200106E38EC27F0B50E026E7E0E036E10EC0C
:104DC20027F0070E026ED00E016EE7EC27F01200FC
:104DD200000E026E080E016E000E046E000E036ECF
:104DE20050EC2FF0000E096E000E026E1E0E016EC8
:104DF200800E0714036E046A50EC2FF00DEC26F0BF
:104E0200D89007360836092A070E09640BEF27F0F7
:104E12000DEF27F0F5EF26F022EC26F01200000E3F
:104E2200066E23EF27F006500224046E000E0320C4
:104E3200056E04C0F6FF05C0F7FF0800F5509BECB5
:104E420025F0062A06500224046E000E0320056E89
:104E520004C0F6FF05C0F7FF0800F5500009D8A40A
:104E620035EF27F037EF27F014EF27F01200000E8E
:104E7200146E000E136E4EEF27F013500F24116EB6
:104E820014501020126E11C0F6FF12C0F7FF080076
:104E9200F550B5EC25F0134A142A13500F24116E65
:104EA20014501020126E11C0F6FF12C0F7FF080056
:104EB200F5500009D8A460EF27F062EF27F03EEF2B
:104EC20027F01200000E026E180E016E000E046E24
:104ED200000E036E29EC2EF0000E026E190E016E0A
:104EE200000E046E000E036E29EC2EF0000E026E10
:104EF2001A0E016E000E046E000E036E29EC2EF0E7
:104F0200000E026E1B0E016E000E046E000E036E8A
:104F120029EC2EF068EC26F012002B6E2A50D8A451
:104F220095EF27F097EF27F099EF27F02BC07CF051
:104F32002A04D8A49FEF27F0A1EF27F0A3EF27F0D0
:104F42002BC07BF0020E2A18D8A4AAEF27F0ACEFF0
:104F520027F0AEEF27F02BC07AF0030E2A18D8A460
:104F6200B5EF27F0B7EF27F0B9EF27F02BC079F0B4
:104F720012000D6E0DC00CF00C3A0F0E0C160C50F8
:104F8200076E086AE9EC26F0000E026E1D0E016E35
:104F92000AC003F00BC004F050EC2FF0A6EC26F090
:104FA2000DC00CF00F0E0C160C50076E086AE9ECDF
:104FB20026F0000E026E1D0E016E0AC003F00BC039
:104FC20004F050EC2FF0A6EC26F01200000E046E56
:104FD200000E036E0DEF28F0000E056E280E05641C
:104FE200F5EF27F0F7EF27F0F9EF27F00BEF28F0B6
:104FF200000E066E020E066401EF28F003EF28F0A1
:1050020005EF28F008EF28F0062AFBEF27F0052A23
:10501200EFEF27F0034A042A0150035C02500458C0
:10502200D8A016EF28F018EF28F0EDEF27F01200C5
:10503200000E086E010E076E2FEC29F0070E026EAD
:105042007E0E036E10EC27F0250E026E7E0E036EAE
:1050520010EC27F0880E026E7E0E036E10EC27F025
:10506200700E026E7E0E036E10EC27F0580E026E6A
:105072007E0E036E10EC27F0010EA6EC25F0800EDA
:10508200A6EC25F0030E0F6E7F0E106E38EC27F0A3
:10509200C00EA6EC25F0E10E0F6E7F0E106E38ECFE
:1050A20027F01200000E056E000E046E04C001F01F
:1050B200010E026E000E036E012A63EF28F0D890F3
:1050C20002360336012E60EF28F0000184510216E9
:1050D2008551031602500310D8B472EF28F074EF12
:1050E20028F07EEF28F0510E0424F66E7D0E052086
:1050F200F76E0800F5508FEF28F0044A052A05BE26
:105102008CEF28F0055009E10A0E045CD8A08CEF60
:1051120028F08EEF28F057EF28F0000E1200000E54
:105122000A6E000E096EABB499EF28F09BEF28F0DF
:10513200A2EF28F0ABA2A0EF28F0A2EF28F0B0EF88
:1051420028F0AB98AB88B0EF28F0000E026E140E78
:10515200016EE7EC27F0140E0926000E0A22075012
:10516200095C08500A58D8A0B9EF28F0BBEF28F024
:10517200C4EF28F007500810D8A4C2EF28F0C4EFFB
:1051820028F0CBEF28F09EAAC9EF28F0CBEF28F049
:10519200A6EF28F09EAAD0EF28F0D2EF28F0D5EFA4
:1051A20028F0AE50D6EF28F0A50E1200000E296EA0
:1051B20025BEE0EF28F0DEEF28F0E6EF28F0246CC1
:1051C200251ED8B0252A010E296E27BEEDEF28F044
:1051D200EBEF28F0F1EF28F0266C271ED8B0272A33
:1051E20026502710D8B4F8EF28F0FAEF28F01EEF77
:1051F20029F0010E286E02EF29F0D89026362736C4
:10520200282A27AE07EF29F009EF29F0FEEF28F050
:105212002650245C27502558D8A012EF29F014EF0D
:1052220029F018EF29F02650245E2750255AD890ED
:1052320027322632282E09EF29F02950D8B424EF3C
:1052420029F026EF29F02AEF29F0246C251ED8B088
:10525200252A24C024F025C025F0120007A034EF2F
:1052620029F036EF29F042EF29F0000E026E180EF7
:10527200016E000E046E010E036E50EC2FF04CEF27
:1052820029F0000E026E180E016E000E046E000E62
:10529200036E50EC2FF007A251EF29F053EF29F0E3
:1052A2005FEF29F0000E026E190E016E000E046E01
:1052B200010E036E50EC2FF069EF29F0000E026E22
:1052C200190E016E000E046E000E036E50EC2FF0EC
:1052D20007A46EEF29F070EF29F07CEF29F0000EA1
:1052E200026E1A0E016E000E046E010E036E50EC79
:1052F2002FF086EF29F0000E026E1A0E016E000EDC
:10530200046E000E036E50EC2FF01200000E026EBF
:105312001C0E016E000E046E000E036E29EC2EF0C0
:10532200000E026E1D0E016E000E046E000E036E64
:1053320029EC2EF068EC26F0000E026E0F0E016EC4
:1053420037EC26F0000E0B6E000E0A6E030EE7EC31
:1053520025F0000E026E050E016E37EC26F0000EEF
:105362000B6E000E0A6E030EE7EC25F0000E026EC5
:10537200A00E016E81EC25F0000E0B6E000E0A6E7F
:10538200030EE7EC25F0000E026EA00E016E81EC1A
:1053920025F0000E0B6E000E0A6E020EE7EC25F0F1
:1053A200000E026E0A0E016E37EC26F0280EA6ECF5
:1053B20025F00C0EA6EC25F0010EA6EC25F012004D
:1053C20087EC29F087EC26F04FEC26F091EC25F0E3
:1053D20063EC27F085EC25F0800EA6EC25F0940E08
:1053E2000F6E7F0E106E38EC27F0C00EA6EC25F083
:1053F200330E0F6E7F0E106E38EC27F0C50E026E64
:105402007D0E036E10EC27F0130E026E880E016EF5
:10541200E7EC27F025EF2AF019EC28F0010E776E61
:105422003AEF2AF053EC28F0786E7850D8B41CEF9B
:105432002AF01EEF2AF03AEF2AF07850B9EC36F053
:10544200000E776E3AEF2AF07750756E766A7650D4
:10545200000AD8B42FEF2AF021EF2AF07550000A83
:10546200D8B40DEF2AF0010AD8B413EF2AF021EFD5
:105472002AF045EC2BF025EF2AF000EF00F0000EA9
:105482000114096E000E02140A6E800E03140B6ED4
:105492007F0E04140C6E09500A100B100C10D8A4C5
:1054A20055EF2AF057EF2AF05FEF2AF0000E016E57
:1054B200000E026E000E036E000E046E000E051446
:1054C200096E000E06140A6E800E07140B6E7F0E14
:1054D20008140C6E09500A100B100C10D8A474EFAB
:1054E2002AF076EF2AF07EEF2AF0000E056E000E0B
:1054F200066E000E076E000E086E04AE83EF2AF0F1
:1055020085EF2AF08EEF2AF0016C021ED8B0022A33
:10551200031ED8B0032A800E045608AE93EF2AF079
:1055220095EF2AF09EEF2AF0056C061ED8B0062AE7
:10553200071ED8B0072A800E0856000E011A000E68
:10554200021A000E031A800E041A000E051A000E2B
:10555200061A000E071A800E081A0550015C065042
:1055620002580750035808500458D8B0BBEF2AF02D
:10557200BDEF2AF0C0EF2AF0D890C1EF2AF0D88010
:1055820012001C341D34236E2350D8A4CBEF2AF012
:10559200CDEF2AF0D7EF2AF0000E1A6E000E1B6E26
:1055A200000E1C6E000E1D6E44EF2BF01AC01EF092
:1055B2001BC01FF01CC020F01DC021F0200EE7EF21
:1055C2002AF0D890213220321F321E32E82EE2EF2A
:1055D2002AF01E50226E1C8EFF0E1A16FF0E1B168C
:1055E200FF0E1C16000E1D16960E235E23BEFEEF46
:1055F2002AF0FCEF2AF014EF2BF02350800A970FC9
:10560200D8B006EF2BF008EF2BF00AEF2BF0CDEF1E
:105612002AF0D8901D321C321B321A32233E0AEF76
:105622002BF02CEF2BF01F0E23641AEF2BF01CEF44
:105632002BF024EF2BF0CDEF2AF0D8901A361B3640
:105642001C361D3623062350D8A42AEF2BF02CEF4C
:105652002BF01EEF2BF02250D8B432EF2BF034EFA8
:105662002BF03CEF2BF01D1E1C1E1B1E1A6C000E95
:105672001B221C221D221AC01AF01BC01BF01CC0C8
:105682001CF01DC01DF01200000E0001836F000E01
:10569200826F000E0E6E000E0D6E0EBE5AEF2BF0D4
:1056A2000E5009E1050E0D5CD8A05AEF2BF05CEF0D
:1056B2002BF05EEF2BF0C1EF2BF00DC00AF0030EC2
:1056C2000A26010E0B6E000E0C6E0A2A6CEF2BF0EE
:1056D200D8900B360C360A2E69EF2BF00BC007F070
:1056E2000CC008F0E9EC26F0000E026E0A0E016E04
:1056F200E4EC2BF001500210D8B482EF2BF084EFCF
:105702002BF098EF2BF00DC00AF0010E0B6E000E7D
:105712000C6E0A2A90EF2BF0D8900B360C360A2E1C
:105722008DEF2BF00B50000182130C508313000EEF
:10573200026E090E016EE4EC2BF001500210D8B497
:10574200A5EF2BF0A7EF2BF0BDEF2BF00DC00AF069
:10575200050E0A26010E0B6E000E0C6E0A2AB5EF1C
:105762002BF0D8900B360C360A2EB2EF2BF00B50E2
:10577200000182130C5083130D4A0E2A4EEF2BF0B8
:1057820000018251801907E183518119D8A4CCEF1D
:105792002BF0CEEF2BF0D1EF2BF07E06D7EF2BF0D4
:1057A200010E7E6E82C080F083C081F07E50D8A44C
:1057B200DDEF2BF0DFEF2BF0E3EF2BF080C084F076
:1057C20081C085F0120002BEF2EF2BF0025007E119
:1057D200080E015CD8B0F0EF2BF0F2EF2BF006EFE1
:1057E2002CF001C003F0010E046E032AFBEF2BF034
:1057F200D8900436032EF9EF2BF004508014056E76
:105802000550016E026A98EF2CF002BE14EF2CF0E4
:10581200025007E1100E015CD8B012EF2CF014EF29
:105822002CF02AEF2CF001C003F0F80E0326010E33
:10583200046E032A1FEF2CF0D8900436032E1DEFBE
:105842002CF004508114056E0550016E026A98EF27
:105852002CF002BE38EF2CF0025007E1180E015C6A
:10586200D8B036EF2CF038EF2CF04EEF2CF001C010
:1058720003F0F00E0326010E046E032A43EF2CF010
:10588200D8900436032E41EF2CF004508214056E9A
:105892000550016E026A98EF2CF002BE5CEF2CF00C
:1058A200025007E1200E015CD8B05AEF2CF05CEFF9
:1058B2002CF072EF2CF001C003F0E80E0326010E6B
:1058C200046E032A67EF2CF0D8900436032E65EF9E
:1058D2002CF004508314056E0550016E026A98EF95
:1058E2002CF002BE80EF2CF0025007E1280E015C82
:1058F200D8B07EEF2CF080EF2CF096EF2CF001C0A8
:1059020003F0E00E0326010E046E032A8BEF2CF047
:10591200D8900436032E89EF2CF004508414056EBF
:105922000550016E026A98EF2CF0016802681200BD
:10593200000E026E180E016E000E046E000E036E53
:1059420050EC2FF0000E026E190E016E000E046E66
:10595200000E036E50EC2FF0000E026E1A0E016E56
:10596200000E046E000E036E50EC2FF0000E026E5D
:105972001B0E016E000E046E000E036E50EC2FF033
:10598200000E086E000E076EE9EC26F031EF2DF0E6
:10599200410E7C24F66EF76A7D0EF7220800F55060
:1059A200076E086AE9EC26F0000E026E180E016E10
:1059B200000E046E010E036E50EC2FF0010E7D6E90
:1059C2004EEF2DF0410E7B24F66EF76A7D0EF72224
:1059D2000800F550076E086AE9EC26F0000E026E28
:1059E200190E016E000E046E010E036E50EC2FF0C4
:1059F200020E7D6E4EEF2DF0410E7A24F66EF76A9E
:105A02007D0EF7220800F550076E086AE9EC26F0D1
:105A1200000E026E1A0E016E000E046E010E036E6F
:105A220050EC2FF0030E7D6E4EEF2DF0410E7924D7
:105A3200F66EF76A7D0EF7220800F550076E086AC7
:105A4200E9EC26F0000E026E1B0E016E000E046ED3
:105A5200010E036E50EC2FF0000E7D6E4EEF2DF016
:105A62007D500A6E0B6A0B50000AD8B43BEF2DF042
:105A72002DEF2DF00A50000AD8B4C9EF2CF0010A1C
:105A8200D8B4E3EF2CF0030AD8B4FDEF2CF0010AEE
:105A9200D8B417EF2DF02DEF2DF01200386E3850DC
:105AA200D8B456EF2DF058EF2DF07AEF2DF033BE2B
:105AB2005FEF2DF05DEF2DF07AEF2DF030C034F076
:105AC20031C035F032C036F033C037F0341E351EE7
:105AD200361E371E342A000E35223622372234C0B3
:105AE2003AF035C03BF036C03CF037C03DF082EFB3
:105AF2002DF030C03AF031C03BF032C03CF033C040
:105B02003DF03050311032103310D8A48BEF2DF00D
:105B12008DEF2DF097EF2DF0000E306E000E316EEE
:105B2200000E326E000E336E28EF2EF0960E396E96
:105B3200A1EF2DF0392AD8903D323C323B323A3235
:105B4200000E3A14346E000E3B14356E000E3C14F7
:105B5200366EFE0E3D14376E345035103610371047
:105B6200D8A4B6EF2DF0B8EF2DF09BEF2DF0C6EFD5
:105B72002DF0392A010E3A26000E3B223C223D220C
:105B8200D8903D323C323B323A32000E3A14346EF7
:105B9200000E3B14356E000E3C14366EFF0E3D14A3
:105BA200376E3450351036103710D8A4DBEF2DF095
:105BB200DDEF2DF0BAEF2DF0E5EF2DF03906D8909C
:105BC2003A363B363C363D363CBEEAEF2DF0ECEF42
:105BD2002DF0F4EF2DF0020E3960F2EF2DF0F4EF1C
:105BE2002DF0DFEF2DF039B0F9EF2DF0FBEF2DF0B6
:105BF200FCEF2DF03C9ED890393239C034F0356A32
:105C0200366A376A34C037F0366A356A346A3450D5
:105C12003A1235503B1236503C1237503D12385032
:105C2200D8B416EF2EF018EF2EF020EF2EF033BE80
:105C32001FEF2EF01DEF2EF020EF2EF03D8E3AC01A
:105C420030F03BC031F03CC032F03DC033F01200C6
:105C520002BE37EF2EF0025007E1080E015CD8B009
:105C620035EF2EF037EF2EF061EF2EF003500410D7
:105C7200D8B43EEF2EF040EF2EF050EF2EF001C0E0
:105C820005F0010E066E052A49EF2EF0D890063671
:105C9200052E47EF2EF0065092124FEF2FF001C063
:105CA20005F0010E066E052A59EF2EF0D890063641
:105CB200052E57EF2EF00650FF0A92164FEF2FF0E7
:105CC20002BE6FEF2EF0025007E1100E015CD8B059
:105CD2006DEF2EF06FEF2EF09DEF2EF003500410BB
:105CE200D8B476EF2EF078EF2EF08AEF2EF001C0C6
:105CF20005F0F80E0526010E066E052A83EF2EF03A
:105D0200D8900636052E81EF2EF0065093124FEFF3
:105D12002FF001C005F0F80E0526010E066E052AC9
:105D220095EF2EF0D8900636052E93EF2EF0065002
:105D3200FF0A93164FEF2FF002BEABEF2EF0025088
:105D420007E1180E015CD8B0A9EF2EF0ABEF2EF0F0
:105D5200D9EF2EF003500410D8B4B2EF2EF0B4EF06
:105D62002EF0C6EF2EF001C005F0F00E0526010E52
:105D7200066E052ABFEF2EF0D8900636052EBDEF2F
:105D82002EF0065094124FEF2FF001C005F0F00EE6
:105D92000526010E066E052AD1EF2EF0D8900636A2
:105DA200052ECFEF2EF00650FF0A94164FEF2FF07C
:105DB20002BEE7EF2EF0025007E1200E015CD8B0E0
:105DC200E5EF2EF0E7EF2EF015EF2FF00350041061
:105DD200D8B4EEEF2EF0F0EF2EF002EF2FF001C06C
:105DE20005F0E80E0526010E066E052AFBEF2EF0E1
:105DF200D8900636052EF9EF2EF0065095124FEF89
:105E02002FF001C005F0E80E0526010E066E052AE8
:105E12000DEF2FF0D8900636052E0BEF2FF006501F
:105E2200FF0A95164FEF2FF002BE23EF2FF002501C
:105E320007E1280E015CD8B021EF2FF023EF2FF0FD
:105E42004FEF2FF003500410D8B42AEF2FF02CEFAD
:105E52002FF03EEF2FF001C005F0E00E0526010EF7
:105E6200066E052A37EF2FF0D8900636052E35EF4D
:105E72002FF0065096124FEF2FF001C005F0E00E02
:105E82000526010E066E052A49EF2FF0D890063638
:105E9200052E47EF2FF00650FF0A9616120002BE9B
:105EA2005EEF2FF0025007E1080E015CD8B05CEF04
:105EB2002FF05EEF2FF088EF2FF003500410D8B4CC
:105EC20065EF2FF067EF2FF077EF2FF001C005F0AD
:105ED200010E066E052A70EF2FF0D8900636052EB9
:105EE2006EEF2FF00650801276EF30F001C005F011
:105EF200010E066E052A80EF2FF0D8900636052E89
:105F02007EEF2FF00650FF0A801676EF30F002BEC9
:105F120096EF2FF0025007E1100E015CD8B094EF1B
:105F22002FF096EF2FF0C4EF2FF0F80E0126FF0EA0
:105F3200022203500410D8B4A1EF2FF0A3EF2FF0E8
:105F4200B3EF2FF001C005F0010E066E052AACEF8B
:105F52002FF0D8900636052EAAEF2FF006508112A8
:105F620076EF30F001C005F0010E066E052ABCEF97
:105F72002FF0D8900636052EBAEF2FF00650FF0A02
:105F8200811676EF30F002BED2EF2FF0025007E119
:105F9200180E015CD8B0D0EF2FF0D2EF2FF000EF47
:105FA20030F0F00E0126FF0E022203500410D8B486
:105FB200DDEF2FF0DFEF2FF0EFEF2FF001C005F054
:105FC200010E066E052AE8EF2FF0D8900636052E50
:105FD200E6EF2FF00650821276EF30F001C005F0A6
:105FE200010E066E052AF8EF2FF0D8900636052E20
:105FF200F6EF2FF00650FF0A821676EF30F002BE5F
:106002000EEF30F0025007E1200E015CD8B00CEF29
:1060120030F00EEF30F03CEF30F0E80E0126FF0ECC
:10602200022203500410D8B419EF30F01BEF30F005
:106032002BEF30F001C005F0010E066E052A24EFA9
:1060420030F0D8900636052E22EF30F0065083123B
:1060520076EF30F001C005F0010E066E052A34EF2E
:1060620030F0D8900636052E32EF30F00650FF0A97
:10607200831676EF30F002BE4AEF30F0025007E1AD
:10608200280E015CD8B048EF30F04AEF30F076EFDE
:1060920030F0E00E0126FF0E022203500410D8B4A5
:1060A20055EF30F057EF30F067EF30F001C005F0F8
:1060B200010E066E052A60EF30F0D8900636052EE6
:1060C2005EEF30F00650841276EF30F001C005F03A
:1060D200010E066E052A70EF30F0D8900636052EB6
:1060E2006EEF30F00650FF0A841612000450800B47
:1060F200116E04500424186E03AE82EF30F084EF68
:1061020030F085EF30F018801850D8B48BEF30F0B3
:106112008DEF30F0A2EF30F01828D8A493EF30F0D2
:1061220095EF30F09DEF30F0000E016E000E026E22
:10613200000E036E000E046E038E000E046EAAEFB4
:1061420030F0000E016E000E026E000E036E000EA5
:10615200046E0850800B111A08500824196E07AEFD
:10616200B5EF30F0B7EF30F0B8EF30F019801950DA
:10617200D8B4BEEF30F0C0EF30F0D5EF30F01928D0
:10618200D8A4C6EF30F0C8EF30F0D0EF30F0000EF8
:10619200056E000E066E000E076E000E086E078E6C
:1061A200000E086EDDEF30F0000E056E000E066E7A
:1061B200000E076E000E086E05500610071008103C
:1061C200D8A4E6EF30F0E8EF30F000EF31F0000E47
:1061D200016E000E026E000E036E000E046E800E43
:1061E20003127F0E04121150041201C001F002C00A
:1061F20002F003C003F004C004F043EF32F0185081
:10620200D8A406EF31F008EF31F012EF31F0000EB2
:10621200016E000E026E000E036E000E046E43EF5E
:1062220032F0195018C009F00A6A095E000E0A5AC3
:106232007F0E0924126E000E0A20136E01C00DF0AB
:1062420002C00EF003C00FF004C010F0000E016E89
:10625200000E026E000E036E000E046E000E146E2F
:10626200000E156E000E166E000E176E000E196EE1
:1062720073EF31F01950D8B441EF31F043EF31F000
:106282005AEF31F0D8900D360E360F361036D890C0
:10629200013602360336043617AE52EF31F054EFB0
:1062A20031F055EF31F00180D8901436153616369C
:1062B200173605500D5C06500E5807500F580850FF
:1062C2001058D8A067EF31F069EF31F072EF31F07A
:1062D200178C05500D5E06500E5A07500F5A085083
:1062E200105A192A190E196479EF31F07BEF31F047
:1062F2003BEF31F00D500E100F101010D8B484EF98
:1063020031F086EF31F09EEF31F014809EEF31F0E4
:10631200D890013602360336043617AE93EF31F0C9
:1063220095EF31F096EF31F00180D89014361536A2
:10633200163617361206D8A0130603AEA3EF31F0B5
:10634200A5EF31F089EF31F0000E196E17AEACEF08
:1063520031F0AEEF31F0D2EF31F0FF0E1414096ECE
:10636200FF0E15140A6EFF0E16140B6E7F0E171415
:106372000C6E09500A100B100C10D8B4C3EF31F098
:10638200C5EF31F0C9EF31F0010E196ED2EF31F0E5
:1063920001A0CEEF31F0D0EF31F0D2EF31F0C5EF06
:1063A20031F01950D8B4D8EF31F0DAEF31F0FEEF16
:1063B20031F0010E0126000E02220322042204A063
:1063C200E5EF31F0E7EF31F0FEEF31F001C009F017
:1063D20002C00AF003C00BF004C00CF00C340C3203
:1063E2000B320A32093209C001F00AC002F00BC0B6
:1063F20003F00CC004F0124A132A13BE09EF32F064
:10640200135008E11228D8A009EF32F00BEF32F056
:1064120016EF32F0000E136E1268000E016E000EBF
:10642200026E000E036E000E046E13BE23EF32F0F6
:10643200135006E11204D8B021EF32F023EF32F00C
:1064420031EF32F0000E136E000E126E000E016E6E
:10645200000E026E000E036E000E046E000E116E30
:1064620012C018F018A038EF32F03AEF32F03DEFD8
:1064720032F0038E3EEF32F0039ED8901830046E55
:10648200F4EF30F012004150800B4A6E415041242B
:10649200506E40AE4FEF32F051EF32F052EF32F029
:1064A20050805050D8B458EF32F05AEF32F06DEFBE
:1064B20032F05028D8A460EF32F062EF32F06AEF87
:1064C20032F0000E3E6E000E3F6E000E406E000E69
:1064D200416E408E75EF32F0000E3E6E000E3F6E42
:1064E200000E406E000E416E4550800B4A1A455018
:1064F20045244F6E44AE80EF32F082EF32F083EFEC
:1065020032F04F804F50D8B489EF32F08BEF32F037
:106512009EEF32F04F28D8A491EF32F093EF32F091
:106522009BEF32F0000E426E000E436E000E446E80
:10653200000E456E448EA6EF32F0000E426E000E43
:10654200436E000E446E000E456E4F50D8B4ACEF51
:1065520032F0AEEF32F0B6EF32F05050D8A4B4EFD2
:1065620032F0B6EF32F0C0EF32F0000E3E6E000EA7
:106572003F6E000E406E000E416E58EF34F04450F4
:106582003E02F3CF55F0F4CF56F055504B6E4C6AA5
:106592004D6A4E6A5650516E526A536A546A43505B
:1065A2003F02F3CF55F0F4CF56F055504B26000E74
:1065B2004C224D224E2256505126000E5222532278
:1065C200542242504002F3CF55F0F4CF56F05550CA
:1065D2004B26000E4C224D224E2256505126000EC2
:1065E2005222532254224DC04EF04CC04DF04BC0AB
:1065F2004CF04B6A42503F02F3CF55F0F4CF56F0C5
:1066020055504B2656504C22000E4D22000E4E2263
:1066120043503E02F3CF55F0F4CF56F055504B267F
:1066220056504C22000E4D22000E4E224DC04EF00E
:106632004CC04DF04BC04CF04B6A42503E02F3CF7F
:1066420055F0F4CF56F055504B2656504C22000EC2
:106652004D22000E4E2244503F02F3CF55F0F4CFAC
:1066620056F05550512656505222000E5322000E1B
:10667200542243504002F3CF55F0F4CF56F0555018
:10668200512656505222000E5322000E54224450DC
:106692004002F3CF55F0F4CF56F05550466E5650A7
:1066A200476E486A496A48C049F047C048F046C048
:1066B20047F0466A465051264750522248505322CC
:1066C200495054224BC046F04CC047F04DC048F0F0
:1066D2004EC049F0190E73EF33F0D8904932483268
:1066E20047324632E82E6EEF33F04650512647507D
:1066F200522248505322495054224DC04EF04CC0B1
:106702004DF04BC04CF04B6A4F5050C046F0476AB8
:106712004626000E4722820E4624556EFF0E472063
:10672200566EA9EF33F0D89051365236533654365E
:106732004EAE9EEF33F0A0EF33F0A1EF33F0518075
:10674200D8904B364C364D364E365506D8A05606A6
:1067520053AEAEEF33F0B0EF33F094EF33F0000E00
:106762004F6E4EAEB7EF33F0B9EF33F0DDEF33F0EB
:10677200FF0E4B14466EFF0E4C14476EFF0E4D1467
:10678200486E7F0E4E14496E46504710481049100D
:10679200D8B4CEEF33F0D0EF33F0D4EF33F0010EB4
:1067A2004F6EDDEF33F051A0D9EF33F0DBEF33F072
:1067B200DDEF33F0D0EF33F04F50D8B4E3EF33F0E6
:1067C200E5EF33F009EF34F0010E5126000E5222AC
:1067D2005322542254A0F0EF33F0F2EF33F009EFDA
:1067E20034F051C046F052C047F053C048F054C094
:1067F20049F04934493248324732463246C051F0B4
:1068020047C052F048C053F049C054F0554A562A86
:1068120056BE14EF34F0565008E15528D8A014EFB4
:1068220034F016EF34F020EF34F0000E516E000E0B
:10683200526E800E536E7F0E546E4EEF34F056BE83
:106842002DEF34F0565006E15504D8B02BEF34F05A
:106852002DEF34F039EF34F0000E516E000E526E0F
:10686200000E536E000E546E000E4A6E4EEF34F060
:1068720055C050F0FF0E5116FF0E52167F0E5316E2
:10688200000E541650A048EF34F04AEF34F04BEFAC
:1068920034F0538ED8905030546E4A50541251C036
:1068A2003EF052C03FF053C040F054C041F01200DD
:1068B2004150800B4A6E415041244C6E40AE64EF11
:1068C20034F066EF34F067EF34F04C804C50D8B4BB
:1068D2006DEF34F06FEF34F084EF34F04C28D8A42D
:1068E20075EF34F077EF34F07FEF34F0000E3E6E48
:1068F200000E3F6E000E406E000E416E408E000E86
:10690200416E8CEF34F0000E3E6E000E3F6E000EB4
:10691200406E000E416E4550800B4B6E4A504B1834
:10692200D8B496EF34F098EF34F099EF34F04A8C03
:10693200455045244B6E44AEA1EF34F0A3EF34F042
:10694200A4EF34F04B804B50D8B4AAEF34F0ACEF44
:1069520034F0C1EF34F04B28D8A4B2EF34F0B4EFE6
:1069620034F0BCEF34F0000E426E000E436E000EA7
:10697200446E000E456E448E000E456EC9EF34F033
:10698200000E426E000E436E000E446E000E456E07
:106992004C504B5CD8B0D0EF34F0D2EF34F0F9EF7A
:1069A20034F04AACD7EF34F0D9EF34F0DBEF34F007
:1069B200800E4A1A4CC04DF04BC04CF04DC04BF00B
:1069C2003EC04DF042C03EF04DC042F03FC04DF0DF
:1069D20043C03FF04DC043F040C04DF044C040F0D2
:1069E2004DC044F041C04DF045C041F04DC045F0AE
:1069F200000E4D6E4C504BC046F0476A465E000E8C
:106A0200475A47BE0EEF35F0475009E11A0E465C71
:106A1200D8A00EEF35F010EF35F047EF35F03E50CD
:106A22003F1040104110D8A419EF35F01CEF35F09B
:106A3200010E1DEF35F0000E4D6E000E3E6E000E83
:106A42003F6E000E406E000E416E4BC04CF050EF98
:106A520035F04DA02FEF35F031EF35F037EF35F04F
:106A6200D8904D3001094D6E39EF35F0D8904D3246
:106A72003EA03EEF35F040EF35F041EF35F04D8E60
:106A82004134413240323F323E324C2A4B504C5C10
:106A9200D8A04EEF35F050EF35F02AEF35F04ABC72
:106AA20055EF35F057EF35F097EF35F04C50D8A44D
:106AB2005DEF35F05FEF35F069EF35F0000E3E6EB9
:106AC200000E3F6E000E406E000E416EB8EF36F0C3
:106AD20042503E2643503F224450402245504122DC
:106AE20041A076EF35F078EF35F024EF36F04DA087
:106AF2007DEF35F07FEF35F085EF35F0D8904D30F2
:106B020001094D6E87EF35F0D8904D323EA08CEFE3
:106B120035F08EEF35F08FEF35F04D8E4134413246
:106B220040323F323E324C2A24EF36F042503E5C35
:106B320043503F58445040584150800A466E455099
:106B4200800A4658D8B0A8EF35F0AAEF35F0D5EF55
:106B520035F03E50425C466E3F504358476E4050BF
:106B62004458486E41504558496EFF0E46243E6EC9
:106B7200FF0E47203F6EFF0E4820406EFF0E492059
:106B8200416E800E4A1A4D6C4D50D8A4CBEF35F0B1
:106B9200CDEF35F0DDEF35F0010E3E26000E3F223F
:106BA20040224122DDEF35F042503E5E43503F5AD3
:106BB2004450405A4550415A3E503F1040104110F7
:106BC200D8A4E6EF35F0E8EF35F01DEF36F04D5082
:106BD200D8A4EEEF35F0F0EF35F01DEF36F0000EF1
:106BE2003E6E000E3F6E000E406E000E416EB8EF1C
:106BF20036F0D8903E363F36403641364DAE04EF41
:106C020036F006EF36F007EF36F03E804DA00CEF7F
:106C120036F00EEF36F012EF36F0D8804D3614EF24
:106C220036F0D8904D364C50D8B41AEF36F01CEFEF
:106C320036F01DEF36F04C0640AE22EF36F024EF70
:106C420036F0FAEF35F0000E4B6E4DAE2BEF36F00C
:106C52002DEF36F045EF36F04DC046F07F0E46166A
:106C6200D8B436EF36F038EF36F03CEF36F0010E9E
:106C72004B6E45EF36F03EA041EF36F043EF36F073
:106C820045EF36F038EF36F04B50D8B44BEF36F0D4
:106C92004DEF36F078EF36F0010E3E26000E3F2221
:106CA2004022412241A058EF36F05AEF36F078EFF9
:106CB20036F03EC046F03FC047F040C048F041C009
:106CC20049F04934493248324732463246C03EF0F2
:106CD20047C03FF048C040F049C041F04C28D8B40A
:106CE20075EF36F077EF36F078EF36F04C2A4C2815
:106CF200D8B47EEF36F080EF36F088EF36F04C50A5
:106D0200D8A486EF36F088EF36F09AEF36F0000E10
:106D12003E6E000E3F6E000E406E000E416E4C50F5
:106D2200D8A496EF36F098EF36F09AEF36F0000ED0
:106D32004A6E4CA09FEF36F0A1EF36F0A4EF36F08A
:106D4200408EA5EF36F0409ED8904C30416E4AAE50
:106D5200ADEF36F0AFEF36F0B0EF36F0418E3EC019
:106D62003EF03FC03FF040C040F041C041F0120051
:106D7200616E000E746E000E6F6E000E706E000E6D
:106D8200716E000E726E000E626E000E636E000E69
:106D9200646E000E656E2FEF37F0660E626E660E41
:106DA200636EC60E646E400E656E010EA6EC25F093
:106DB200800EA6EC25F0D80E0F6E7F0E106E38EC0A
:106DC20027F0C00EA6EC25F0420E0F6E7F0E106E5D
:106DD20038EC27F048EF37F0CD0E626ECC0E636EC2
:106DE2009C0E646E400E656E010EA6EC25F0800EC0
:106DF200A6EC25F0F10E0F6E7F0E106E38EC27F028
:106E0200C00EA6EC25F05E0E0F6E7F0E106E38ECF3
:106E120027F048EF37F0660E626E660E636E960ECE
:106E2200646E400E656E010EA6EC25F0800EA6EC97
:106E320025F0EA0E0F6E7F0E106E38EC27F0C00EB2
:106E4200A6EC25F0500E0F6E7F0E106E38EC27F078
:106E520048EF37F0C7EC26F0FCEF39F061505D6E79
:106E62005E6A5E50000AD8B439EF37F02BEF37F084
:106E72005D50440AD8B40CEF37F0080AD8B4EDEFED
:106E820036F0190AD8B4CEEF36F02BEF37F0930E66
:106E9200026E7D0E036E10EC27F0070E086ED00E08
:106EA200076E90EC28F0736EA50E7318D8B45CEFE1
:106EB20037F05EEF37F04EEF37F073509BEC25F072
:106EC2004C0E7318D8A468EF37F06AEF37F072EF00
:106ED20037F0C90E026E7E0E036E10EC27F08DEFB6
:106EE20037F0520E7318D8A479EF37F07BEF37F0F2
:106EF20083EF37F0F00E026E7E0E036E10EC27F079
:106F02008DEF37F0C7EC26F0A00E026E7E0E036EF8
:106F120010EC27F0FCEF39F0660E7424D96EDA6AB1
:106F2200000EDA22070E086ED00E076E90EC28F0E3
:106F3200DF6E660E7424D96EDA6A000EDA22DF5032
:106F42005D6E5E6AD00E5D24FF0E5E20800BD8A4BB
:106F5200ADEF37F0AFEF37F0D7EF37F0D00E5D6E11
:106F6200FF0E5E6E660E7424D96EDA6A000EDA22A5
:106F7200DF505F6E606A5D505F265E50602260BEC9
:106F8200CEEF37F0605007E10A0E5F5CD8B0CCEF6D
:106F920037F0CEEF37F0D7EF37F0030E7418D8A4DE
:106FA200D5EF37F0D7EF37F0EFEF37F0660E7424F6
:106FB200D96EDA6A000EDA222C0EDE18D8A4E4EFBB
:106FC20037F0E6EF37F0F9EF37F0030E7418D8A474
:106FD200EDEF37F0EFEF37F0F9EF37F0660E74248C
:106FE200D96EDA6A000EDA22DF509BEC25F0742AA1
:106FF200050E7418D8A400EF38F002EF38F08DEFC8
:1070020037F04C0E7318D8A409EF38F00BEF38F0B4
:10701200F7EF38F0000E276E300E266E6AC024F0AD
:10702200256AD7EC28F024C030F025C031F0000EDC
:1070320031BEFF0E326E336E010E4FEC2DF030C0BA
:107042003EF031C03FF032C040F033C041F0CD0ECF
:10705200426ECC0E436ECC0E446E3D0E456E44EC39
:1070620032F03EC06BF03FC06CF040C06DF041C0EA
:107072006EF06BC03EF06CC03FF06DC040F06EC071
:1070820041F0000E276E300E266E68C024F0256A8D
:10709200D7EC28F024C030F025C031F0000E31BE0C
:1070A200FF0E326E336E010E4FEC2DF030C042F007
:1070B20031C043F032C044F033C045F059EC34F0F3
:1070C2003EC06BF03FC06CF040C06DF041C06EF04E
:1070D2006BC03EF06CC03FF06DC040F06EC041F03E
:1070E200000E276E300E266E67C024F0256AD7EC9C
:1070F20028F024C02AF025C02BF0000E2D6E0A0EB7
:107102002C6EFAEC25F02AC030F02BC031F0000EC4
:1071120031BEFF0E326E336E010E4FEC2DF030C0D9
:1071220042F031C043F032C044F033C045F059EC74
:1071320034F03EC06BF03FC06CF040C06DF041C017
:107142006EF06BC03EF06CC03FF06DC040F06EC0A0
:1071520041F0000E276E300E266E66C024F0256ABE
:10716200D7EC28F024C02AF025C02BF0000E2D6E9B
:10717200640E2C6EFAEC25F02AC030F02BC031F0F0
:10718200000E31BEFF0E326E336E010E4FEC2DF04B
:1071920030C042F031C043F032C044F033C045F059
:1071A20059EC34F03EC06BF03FC06CF040C06DF063
:1071B20041C06EF062C03EF063C03FF064C040F078
:1071C20065C041F06BC042F06CC043F06DC044F04A
:1071D2006EC045F044EC32F03EC06FF03FC070F03C
:1071E20040C071F041C072F0EAEF39F0520E7318EC
:1071F200D8A4FEEF38F000EF39F0FCEF39F0000EC2
:10720200276E300E266E6AC024F0256AD7EC28F06D
:1072120024C030F025C031F0000E31BEFF0E326EB8
:10722200336E010E4FEC2DF030C03EF031C03FF016
:1072320032C040F033C041F0CD0E426ECC0E436EF0
:10724200CC0E446E3D0E456E44EC32F03EC06FF003
:107252003FC070F040C071F041C072F06FC03EF0AC
:1072620070C03FF071C040F072C041F0000E276E56
:10727200300E266E68C024F0256AD7EC28F024C0B0
:1072820030F025C031F0000E31BEFF0E326E336E8B
:10729200010E4FEC2DF030C042F031C043F032C04D
:1072A20044F033C045F059EC34F03EC06FF03FC0BB
:1072B20070F040C071F041C072F06FC03EF070C01B
:1072C2003FF071C040F072C041F0000E276E300EE8
:1072D200266E67C024F0256AD7EC28F024C02AF075
:1072E20025C02BF0000E2D6E0A0E2C6EFAEC25F046
:1072F2002AC030F02BC031F0000E31BEFF0E326ECC
:10730200336E010E4FEC2DF030C042F031C043F02D
:1073120032C044F033C045F059EC34F03EC06FF057
:107322003FC070F040C071F041C072F06FC03EF0DB
:1073320070C03FF071C040F072C041F0000E276E85
:10734200300E266E66C024F0256AD7EC28F024C0E1
:107352002AF025C02BF0000E2D6E640E2C6EFAEC76
:1073620025F02AC030F02BC031F0000E31BEFF0EE6
:10737200326E336E010E4FEC2DF030C042F031C050
:1073820043F032C044F033C045F059EC34F03EC013
:107392006FF03FC070F040C071F041C072F06FC03A
:1073A20001F070C002F071C003F072C004F062C05C
:1073B20005F063C006F064C007F065C008F077EC22
:1073C20030F001C06BF002C06CF003C06DF004C07D
:1073D2006EF06FC04EF070C04FF071C050F072C0CE
:1073E20051F06BC052F06CC053F06DC054F06EC0DF
:1073F20055F0FDEC39F01200000E586E000E576E7B
:10740200000E596E000E5A6E000E5B6E000E5C6E20
:10741200000E086E020E076E2FEC29F0010EA6EC8C
:1074220025F0800EA6EC25F0AD0E0F6E7F0E106ECD
:1074320038EC27F0C00EA6EC25F0140E0F6E7F0E6E
:10744200106E38EC27F05B0E026E7D0E036E10ECB0
:1074520027F031EF3AF045EC2BF053EC28F0566E62
:10746200730E5618D8B438EF3AF03AEF3AF043EFC9
:107472003AF0530E5618D8A441EF3AF043EF3AF0DF
:107482002CEF3AF0000E086E040E076E2FEC29F076
:10749200010EA6EC25F0240E0F6E7F0E106E38EC56
:1074A20027F0DD0E026E7E0E036E10EC27F0130E37
:1074B200026E880E016EC4EC25F099EC2CF00A0ED7
:1074C20057185810D8A468EF3AF06AEF3AF08AEFEA
:1074D2003AF059C03EF05AC03FF05BC040F05CC089
:1074E20041F0CD0E426ECC0E436ECC0E446E3D0E7C
:1074F200456E59EC34F03EC059F03FC05AF040C0DE
:107502005BF041C05CF0000E586E000E576E8CEFBF
:107512003AF0574A582A000E2A6E000E056E000EE7
:10752200066EC80E076E420E086E59C001F05AC0B0
:1075320002F05BC003F05CC004F077EC30F001C0F5
:107542001AF002C01BF003C01CF004C01DF0C2EC14
:107552002AF01AC024F01BC025F0000E276E0A0E76
:10756200266ED7EC28F024508EEC27F0010E2A6EFE
:10757200000E056E000E066E200E076E410E086E9E
:1075820059C001F05AC002F05BC003F05CC004F0C5
:1075920077EC30F001C01AF002C01BF003C01CF0FF
:1075A20004C01DF0C2EC2AF01AC024F01BC025F062
:1075B200000E276E0A0E266ED7EC28F024508EECB1
:1075C20027F0020E2A6E000E056E000E066E800E69
:1075D200076E3F0E086E59C001F05AC002F05BC040
:1075E20003F05CC004F077EC30F001C01AF002C086
:1075F2001BF003C01CF004C01DF0C2EC2AF01AC03C
:1076020024F01BC025F0000E276E0A0E266ED7EC62
:1076120028F024508EEC27F0030E2A6ECD0E056E54
:10762200CC0E066ECC0E076E3D0E086E59C001F0F0
:107632005AC002F05BC003F05CC004F077EC30F09B
:1076420001C01AF002C01BF003C01CF004C01DF000
:10765200C2EC2AF01AC024F01BC025F0000E276EDF
:107662000A0E266ED7EC28F024508EEC27F089EC17
:1076720025F052C001F053C002F054C003F055C0CF
:1076820004F059C005F05AC006F05BC007F05CC0B8
:1076920008F040EC2AF0D8B051EF3BF053EF3BF04A
:1076A20058EF3AF0010EA6EC25F0800EA6EC25F07C
:1076B200B90E0F6E7F0E106E38EC27F0000E056EBD
:1076C200000E066EC80E076E420E086E4EC001F026
:1076D2004FC002F050C003F051C004F077EC30F01C
:1076E20001C01AF002C01BF003C01CF004C01DF060
:1076F200C2EC2AF01AC024F01BC025F0000E276E3F
:107702000A0E266ED7EC28F02450300FB5EC25F087
:10771200000E056E000E066E200E076E410E086EFC
:107722004EC001F04FC002F050C003F051C004F04F
:1077320077EC30F001C01AF002C01BF003C01CF05D
:1077420004C01DF0C2EC2AF01AC024F01BC025F0C0
:10775200000E276E0A0E266ED7EC28F02450300F4A
:10776200B5EC25F0000E056E000E066E800E076E5B
:107772003F0E086E4EC001F04FC002F050C003F041
:1077820051C004F077EC30F001C01AF002C01BF0D7
:1077920003C01CF004C01DF0C2EC2AF01AC024F091
:1077A2001BC025F0000E276E0A0E266ED7EC28F0BD
:1077B2002450300FB5EC25F02C0EB5EC25F0CD0E93
:1077C200056ECC0E066ECC0E076E3D0E086E4EC0D8
:1077D20001F04FC002F050C003F051C004F077EC4A
:1077E20030F001C01AF002C01BF003C01CF004C04C
:1077F2001DF0C2EC2AF01AC024F01BC025F0000EC6
:10780200276E0A0E266ED7EC28F02450300FB5EC06
:1078120025F0C00EA6EC25F0CF0E0F6E7F0E106E77
:1078220038EC27F0000E056E000E066EC80E076ECD
:10783200420E086E52C001F053C002F054C003F071
:1078420055C004F077EC30F001C01AF002C01BF012
:1078520003C01CF004C01DF0C2EC2AF01AC024F0D0
:107862001BC025F0000E276E0A0E266ED7EC28F0FC
:107872002450300FB5EC25F0000E056E000E066E9A
:10788200200E076E410E086E52C001F053C002F086
:1078920054C003F055C004F077EC30F001C01AF088
:1078A20002C01BF003C01CF004C01DF0C2EC2AF0A1
:1078B2001AC024F01BC025F0000E276E0A0E266E99
:1078C200D7EC28F02450300FB5EC25F0000E056EF1
:1078D200000E066E800E076E3F0E086E52C001F05B
:1078E20053C002F054C003F055C004F077EC30F0FE
:1078F20001C01AF002C01BF003C01CF004C01DF04E
:10790200C2EC2AF01AC024F01BC025F0000E276E2C
:107912000A0E266ED7EC28F02450300FB5EC25F075
:107922002C0EB5EC25F0CD0E056ECC0E066ECC0EEF
:10793200076E3D0E086E52C001F053C002F054C0F3
:1079420003F055C004F077EC30F001C01AF002C029
:107952001BF003C01CF004C01DF0C2EC2AF01AC0D8
:1079620024F01BC025F0000E276E0A0E266ED7ECFF
:1079720028F02450300FB5EC25F0FC0E0F6E7F0E70
:10798200106E38EC27F03F0E026E7E0E036E10EC86
:1079920027F0000E056E000E066EC80E076E420E30
:1079A200086E4EC001F04FC002F050C003F051C04B
:1079B20004F077EC30F001C01AF002C01BF003C0F3
:1079C2001CF004C01DF0C2EC2AF01AC024F01BC047
:1079D20025F0000E276E0A0E266ED7EC28F02450F2
:1079E200300F9BEC25F0000E056E000E066E200E89
:1079F200076E410E086E4EC001F04FC002F050C03B
:107A020003F051C004F077EC30F001C01AF002C06C
:107A12001BF003C01CF004C01DF0C2EC2AF01AC017
:107A220024F01BC025F0000E276E0A0E266ED7EC3E
:107A320028F02450300F9BEC25F0000E056E000E4E
:107A4200066E800E076E3F0E086E4EC001F04FC0EC
:107A520002F050C003F051C004F077EC30F001C0E6
:107A62001AF002C01BF003C01CF004C01DF0C2ECEF
:107A72002AF01AC024F01BC025F0000E276E0A0E51
:107A8200266ED7EC28F02450300F9BEC25F02C0EFC
:107A92009BEC25F0CD0E056ECC0E066ECC0E076E5D
:107AA2003D0E086E4EC001F04FC002F050C003F010
:107AB20051C004F077EC30F001C01AF002C01BF0A4
:107AC20003C01CF004C01DF0C2EC2AF01AC024F05E
:107AD2001BC025F0000E276E0A0E266ED7EC28F08A
:107AE2002450300F9BEC25F0A10E026E7F0E036E28
:107AF20010EC27F0000E056E000E066EC80E076E23
:107B0200420E086E52C001F053C002F054C003F09E
:107B120055C004F077EC30F001C01AF002C01BF03F
:107B220003C01CF004C01DF0C2EC2AF01AC024F0FD
:107B32001BC025F0000E276E0A0E266ED7EC28F029
:107B42002450300F9BEC25F0000E056E000E066EE1
:107B5200200E076E410E086E52C001F053C002F0B3
:107B620054C003F055C004F077EC30F001C01AF0B5
:107B720002C01BF003C01CF004C01DF0C2EC2AF0CE
:107B82001AC024F01BC025F0000E276E0A0E266EC6
:107B9200D7EC28F02450300F9BEC25F0000E056E38
:107BA200000E066E800E076E3F0E086E52C001F088
:107BB20053C002F054C003F055C004F077EC30F02B
:107BC20001C01AF002C01BF003C01CF004C01DF07B
:107BD200C2EC2AF01AC024F01BC025F0000E276E5A
:107BE2000A0E266ED7EC28F02450300F9BEC25F0BD
:107BF2002C0E9BEC25F0CD0E056ECC0E066ECC0E37
:107C0200076E3D0E086E52C001F053C002F054C020
:107C120003F055C004F077EC30F001C01AF002C056
:107C22001BF003C01CF004C01DF0C2EC2AF01AC005
:107C320024F01BC025F0000E276E0A0E266ED7EC2C
:107C420028F02450300F9BEC25F0F80E026E7F0EC8
:107C5200036E10EC27F0000E586E000E576E4AEFBE
:107C62003EF0130E026E880E016EC4EC25F099EC04
:107C72002CF082EC25F00009D8B442EF3EF044EF3C
:107C82003EF046EF3EF056EF3EF089EC25F0574AC3
:107C9200582ADC0E571807E1050E5818D8A454EFDD
:107CA2003EF056EF3EF032EF3EF0000E026E180E3E
:107CB200016E000E046E000E036E50EC2FF0000EEB
:107CC200026E190E016E000E046E000E036E50EC71
:107CD2002FF0000E026E1A0E016E000E046E000EE0
:107CE200036E50EC2FF0000E026E1B0E016E000EA2
:107CF200046E000E036E50EC2FF0010EA6EC25F080
:107D0200800EA6EC25F06C0E0F6E7F0E106E38EC16
:107D120027F0C00EA6EC25F0870E0F6E7F0E106EB8
:107D220038EC27F0E80E026E7D0E036E10EC27F0A1
:107D32000F0E026EA00E016EE7EC27F01200003F5C
:107D4200065B4F666D7D077F6F777C395E79715573
:107D52004C44525358414259730D0A0A417065729C
:107D620074652028643729206E6F207465636C6106
:107D7200646F207061726120636F6D656361722050
:107D820061206162617374656365722E2E2E0A0D25
:107D9200000D0A41626173746563657220706F72CF
:107DA200206C6974726F206F75207265616C205B44
:107DB200284C296974726F2F28522965616C5D3ACB
:107DC200200D000D0A50696353696D4C61622D42AA
:107DD2006F6D626120646520636F6D627573746993
:107DE20076656C0A0D000D0A4F6272696761646FF5
:107DF2002070656C6120707265666572656E63697C
:107E020061210A0D000D0A436F6D62757374697604
:107E120065697320646973706F6E69766569733A18
:107E22000A0D000D28643329202D204761736F6CE1
:107E3200696E6120522420362C320A0D000D0A5040
:107E42007265636F20612073652070616761723AA9
:107E5200205224200D000D4573636F6C68612075FC
:107E62006D61206F7063616F2E2E2E0A0D000D283A
:107E7200643529202D2044696573656C20522420C5
:107E8200342C370A0D000D28643429202D20457426
:107E9200616E6F6C20522420342C390A0D000D0AB9
:107EA2004F7063616F20496E76616C696461212055
:107EB2000A0D000D0A4F7063616F20696E76616C66
:107EC200696461210A0D000D0A4C6974726F732096
:107ED200283030302C30293A200D000D0A416261E1
:107EE20073746563656E646F2E2E2E0A0D000D0A83
:107EF20056616C6F7220283030302C30293A200DB8
:107F020000286433294761736F202864342945743B
:107F120061007061726120636F6D656361722E2E04
:107F22002E0041626173746563656E646F2E2E2E3E
:107F3200002020436F6D627573746976656C3A0038
:107F4200507265636F3A20522420362C32005072F0
:107F520065636F3A20522420342C370050726563D7
:107F62006F3A20522420342C39004F6272696761C3
:107F7200646F2070656C6100202020496E76616C10
:107F82006964612100707265666572656E6369611C
:107F9200210020202020426F6D6261206465000D67
:107FA2000A4C6974726F733A200D004170657274E5
:107FB20065202864372900507265636F3A20522485
:107FC200200020202020204F7063616F004C6974D4
:107FD200726F733A20004761736F6C696E6100289B
:107FE200643529446965730044696573656C0045AD
:0E7FF20074616E6F6C00204C0A00204C000081
:020000040020DA
:08000000FFFFFFFFFFFFFFFF00
:020000040030CA
:0E000000FF027100FF8380FF0FC00FE00F4072
:00000001FF
